:100000000C942A000C9447000C9447000C94470071
:100010000C9447000C9447000C9447000C94470044
:100020000C9447000C9447000C9447000C94470034
:100030000C9447000C9447000C9447000C94470024
:100040000C9447000C9447000C9447000C94470014
:100050000C94470011241FBECFE5D8E0DEBFCDBF12
:1000600010E0A0E6B0E0E4EDF5E002C005900D92EE
:10007000A43DB107D9F720E0A4EDB0E001C01D9286
:10008000A93DB207E1F70E94E3010C94E8020C9449
:1000900000000E9460010E9490010E94ED000E94F9
:1000A000BB010895CF93DF93C0E0D0E012C00E945F
:1000B0004C018093D80088EE93E00E94D6028AE239
:1000C0000E947501FE01EC52FF4F8091D8008083A1
:1000D0002196C430D1055CF38091D400813309F0BE
:1000E00044C08091D500823309F03FC08091D60092
:1000F0008333D9F58091D7008433B9F581E00E942C
:10010000530180E690E00E94830182E50E94AB01EA
:1001100087E40E949B018AE50E94C10188EB9BE075
:100120000E94D60281E00E9453018FE690E00E9477
:10013000830180EC0E94530183E890E00E948301D8
:100140000E944C018093D80088EE93E00E94D60272
:100150008091D8000E9475018091D8008093D900C9
:100160008133B9F40E94E30114C081E00E9453017D
:1001700086E990E00E94830180EC0E94530185EAA9
:1001800090E00E94830180ED97E00E94D6020E94D9
:10019000E301DF91CF91089581E00E94530180EB4C
:1001A00090E00E94830187E40E94AB0182E50E94F7
:1001B0009B0180E00E94C10188EE93E00E94D6027C
:1001C00081E00E94530184EC90E00E94830180EC66
:1001D0000E9453010E945200089580EF81BB8FEF6F
:1001E00082BB08958FEE82BB85E090E00E94D6022C
:1001F000809B32C0819B32C0829B32C0839B32C0C5
:100200008FED82BB85E090E00E94D602809B2CC0DF
:10021000819B2CC0829B2CC0839B2CC08FEB82BB0C
:1002200085E090E00E94D602809B26C0819B26C07C
:10023000829B26C0839B26C08FE782BB85E090E02F
:100240000E94D602809B20C0819B20C0829B20C040
:10025000839920C084E4089587E3089588E308958E
:1002600089E3089581E4089584E3089585E308957A
:1002700086E3089582E4089581E3089582E3089572
:1002800083E3089583E408958AE2089580E308955E
:1002900083E208958DE208958DE202C00E94F2008B
:1002A0008D32E1F308958BBB84E088BB81E090E060
:1002B0000E94D60218BA82E390E00E94D602089506
:1002C0008FEF8ABB87E087BB84E190E00E94D60273
:1002D00088E30E9453018CE00E94530181E00E9458
:1002E000530186E00E94530108958BBB85E088BBD3
:1002F00081E090E00E94D60281E088BB82E390E03A
:100300000E94D6020895CF93DF93EC0103C00E94B0
:100310007501219688818111FACFDF91CF910895DF
:1003200041E061E083E40E94EA0141E062E083E4AD
:100330000E94EA010895873441F0823559F441E082
:1003400061E083E40E946002089541E062E083E49A
:100350000E9460020895873441F0823559F440E0EC
:1003600061E083E40E946002089540E062E083E47B
:100370000E946002089541E060E083E40E94EA0187
:100380000895882389F08A35E9F441E060E083E448
:100390000E94600280ED97E00E94E30240E060E08E
:1003A00083E40E946002089541E060E083E40E94DB
:1003B000600282EF90E00E94E30240E060E083E4AC
:1003C0000E94600208950E9449000E94CC0080E0D3
:1003D00090E008954130B9F58234A1F018F48134E9
:1003E00031F008958334C9F0843411F108952AB3AB
:1003F00081E090E002C0880F991F6A95E2F7822B96
:100400008ABB089527B381E090E002C0880F991F4E
:100410006A95E2F7822B87BB089524B381E090E0D0
:1004200002C0880F991F6A95E2F7822B84BB08955A
:1004300021B381E090E002C0880F991F6A95E2F72E
:10044000822B81BB089541113AC08234A9F018F47F
:10045000813431F008958334D9F0843429F108953A
:100460002AB381E090E002C0880F991F6A95E2F7F5
:10047000809582238ABB089527B381E090E002C073
:10048000880F991F6A95E2F78095822387BB0895AC
:1004900024B381E090E002C0880F991F6A95E2F7CB
:1004A0008095822384BB089521B381E090E002C04F
:1004B000880F991F6A95E2F78095822381BB089582
:1004C0004130B9F58234A1F018F4813431F0089547
:1004D0008334C9F0843411F108952BB381E090E0A6
:1004E00002C0880F991F6A95E2F7822B8BBB089593
:1004F00028B381E090E002C0880F991F6A95E2F767
:10050000822B88BB089525B381E090E002C0880F5C
:10051000991F6A95E2F7822B85BB089522B381E08B
:1005200090E002C0880F991F6A95E2F7822B82BB88
:10053000089541113AC08234A9F018F4813431F0A1
:1005400008958334D9F0843429F108952BB381E0E0
:1005500090E002C0880F991F6A95E2F78095822388
:100560008BBB089528B381E090E002C0880F991FEB
:100570006A95E2F78095822388BB089525B381E0D0
:1005800090E002C0880F991F6A95E2F78095822358
:1005900085BB089522B381E090E002C0880F991FC7
:1005A0006A95E2F78095822382BB089509C02F5F88
:1005B0003F4F02C020E030E024363105C0F3019700
:1005C0000097C1F7089501C001970097E9F70895D2
:0405D000F894FFCFCD
:1005D400444F4F5220554E4C4F434B4544210050FD
:1005E40072657373203120696620796F7520776195
:1005F4006E7400746F206C6F636B20697420616784
:1006040061696E3A200057524F4E47205041535370
:10061400574F52440054727920616761696E21001A
:1006240054686520646F6F72206973204C4F434B8C
:1006340045442100454E5445522050617373776FF1
:0406440072643A00A2
:00000001FF
